{
  "contractName": "vote",
  "abi": [
    {
      "inputs": [],
      "stateMutability": "payable",
      "type": "constructor",
      "payable": true
    },
    {
      "anonymous": false,
      "inputs": [
        {
          "indexed": true,
          "internalType": "address",
          "name": "_candidateid",
          "type": "address"
        }
      ],
      "name": "eventVote",
      "type": "event"
    },
    {
      "inputs": [],
      "name": "candidatecount",
      "outputs": [
        {
          "internalType": "uint256",
          "name": "",
          "type": "uint256"
        }
      ],
      "stateMutability": "view",
      "type": "function",
      "constant": true
    },
    {
      "inputs": [
        {
          "internalType": "address",
          "name": "",
          "type": "address"
        }
      ],
      "name": "candidates",
      "outputs": [
        {
          "internalType": "address",
          "name": "id",
          "type": "address"
        },
        {
          "internalType": "string",
          "name": "name",
          "type": "string"
        },
        {
          "internalType": "uint256",
          "name": "voteCount",
          "type": "uint256"
        }
      ],
      "stateMutability": "view",
      "type": "function",
      "constant": true
    },
    {
      "inputs": [
        {
          "internalType": "address",
          "name": "",
          "type": "address"
        }
      ],
      "name": "voter",
      "outputs": [
        {
          "internalType": "bool",
          "name": "",
          "type": "bool"
        }
      ],
      "stateMutability": "view",
      "type": "function",
      "constant": true
    },
    {
      "inputs": [
        {
          "internalType": "address",
          "name": "_add",
          "type": "address"
        }
      ],
      "name": "getcandi",
      "outputs": [
        {
          "internalType": "address",
          "name": "id",
          "type": "address"
        },
        {
          "internalType": "string",
          "name": "name",
          "type": "string"
        },
        {
          "internalType": "uint256",
          "name": "voteCount",
          "type": "uint256"
        }
      ],
      "stateMutability": "nonpayable",
      "type": "function"
    },
    {
      "inputs": [],
      "name": "sendBJP",
      "outputs": [],
      "stateMutability": "payable",
      "type": "function",
      "payable": true
    },
    {
      "inputs": [],
      "name": "sendCONG",
      "outputs": [],
      "stateMutability": "payable",
      "type": "function",
      "payable": true
    },
    {
      "inputs": [],
      "name": "sendMAM",
      "outputs": [],
      "stateMutability": "payable",
      "type": "function",
      "payable": true
    },
    {
      "inputs": [],
      "name": "sendUPBJP",
      "outputs": [],
      "stateMutability": "payable",
      "type": "function",
      "payable": true
    },
    {
      "inputs": [],
      "name": "sendUPCONG",
      "outputs": [],
      "stateMutability": "payable",
      "type": "function",
      "payable": true
    },
    {
      "inputs": [],
      "name": "sendUPSP",
      "outputs": [],
      "stateMutability": "payable",
      "type": "function",
      "payable": true
    },
    {
      "inputs": [],
      "name": "sendUPBSP",
      "outputs": [],
      "stateMutability": "payable",
      "type": "function",
      "payable": true
    },
    {
      "inputs": [],
      "name": "sendRAJBJP",
      "outputs": [],
      "stateMutability": "payable",
      "type": "function",
      "payable": true
    },
    {
      "inputs": [],
      "name": "sendRAJCong",
      "outputs": [],
      "stateMutability": "payable",
      "type": "function",
      "payable": true
    },
    {
      "inputs": [],
      "name": "sendRAJAap",
      "outputs": [],
      "stateMutability": "payable",
      "type": "function",
      "payable": true
    },
    {
      "inputs": [],
      "name": "sendRAJJD",
      "outputs": [],
      "stateMutability": "payable",
      "type": "function",
      "payable": true
    }
  ],
  "bytecode": "0x60806040526200005f6040518060400160405280600981526020017f4d6f646928424a50290000000000000000000000000000000000000000000000815250738f017e97a4604f26196ae2490a1f1ba1ec9b32fa620003f360201b60201c565b620000ba6040518060400160405280600f81526020017f526168756c28436f6e6772657373290000000000000000000000000000000000815250731de6bf243474474b470f52bf77352a6d319ccc3c620003f360201b60201c565b620001156040518060400160405280600a81526020017f4d616d746128544d4329000000000000000000000000000000000000000000008152507378fc839be6d5fb855c31291b3c0af51ac5e9157c620003f360201b60201c565b620001706040518060400160405280600c81526020017f596f676928424a502d555029000000000000000000000000000000000000000081525073e34d94104898e557bcf5f58c25de55b496e56e53620003f360201b60201c565b620001cb6040518060400160405280601581526020017f50726979616e6b6128436f6e67726573732d5550290000000000000000000000815250732e67ad69e424e6de33d0ce6f5f09e156cb7a79d4620003f360201b60201c565b620002266040518060400160405280600f81526020017f416b68696c6573682853502d55502900000000000000000000000000000000008152507335c90aa7d0b617aa5719b78a70df0048720cdbdb620003f360201b60201c565b620002816040518060400160405280601081526020017f4d61796177617469284253502d5550290000000000000000000000000000000081525073f8f8eea7e771aa3efd20d4db6f2764546b108dea620003f360201b60201c565b620002dc6040518060400160405280601181526020017f4f6d204269726c6128424a502d52616a29000000000000000000000000000000815250731de6bf243474474b470f52bf77352a6d319ccc3c620003f360201b60201c565b620003376040518060400160405280601481526020017f53616368696e28436f6e67726573732d52616a29000000000000000000000000815250731de6bf243474474b470f52bf77352a6d319ccc3c620003f360201b60201c565b620003926040518060400160405280601081526020017f4d616e6a656574284141502d52616a29000000000000000000000000000000008152507378fc839be6d5fb855c31291b3c0af51ac5e9157c620003f360201b60201c565b620003ed6040518060400160405280601281526020017f4465766520476f776461284a442d52616a290000000000000000000000000000815250730dba2fbc717deb4dd31e118a8d853c36e5e0ea37620003f360201b60201c565b62000720565b60026000815480929190620004089062000608565b919050555060405180606001604052808273ffffffffffffffffffffffffffffffffffffffff168152602001838152602001670de0b6b3a76400008373ffffffffffffffffffffffffffffffffffffffff163162000467919062000684565b8152506000808373ffffffffffffffffffffffffffffffffffffffff1673ffffffffffffffffffffffffffffffffffffffff16815260200190815260200160002060008201518160000160006101000a81548173ffffffffffffffffffffffffffffffffffffffff021916908373ffffffffffffffffffffffffffffffffffffffff16021790555060208201518160010190805190602001906200050d9291906200051f565b50604082015181600201559050505050565b8280546200052d90620006eb565b90600052602060002090601f0160209004810192826200055157600085556200059d565b82601f106200056c57805160ff19168380011785556200059d565b828001600101855582156200059d579182015b828111156200059c5782518255916020019190600101906200057f565b5b509050620005ac9190620005b0565b5090565b5b80821115620005cb576000816000905550600101620005b1565b5090565b7f4e487b7100000000000000000000000000000000000000000000000000000000600052601160045260246000fd5b6000819050919050565b60006200061582620005fe565b91507fffffffffffffffffffffffffffffffffffffffffffffffffffffffffffffffff82036200064a5762000649620005cf565b5b600182019050919050565b7f4e487b7100000000000000000000000000000000000000000000000000000000600052601260045260246000fd5b60006200069182620005fe565b91506200069e83620005fe565b925082620006b157620006b062000655565b5b828204905092915050565b7f4e487b7100000000000000000000000000000000000000000000000000000000600052602260045260246000fd5b600060028204905060018216806200070457607f821691505b6020821081036200071a5762000719620006bc565b5b50919050565b61207380620007306000396000f3fe6080604052600436106100e85760003560e01c8063a73f21fe1161008a578063c8b94d6911610059578063c8b94d69146101f8578063caec60d814610223578063e16fb2ba1461022d578063e5429b4914610237576100e8565b8063a73f21fe1461019d578063af0dbe54146101a7578063b127302f146101e4578063c5f8675b146101ee576100e8565b806372d0664a116100c657806372d0664a1461010b5780638ab66a901461011557806391f78a6c1461015457806392a8c01f1461015e576100e8565b80632adb5b5e146100ed5780632b1e8246146100f75780633d0cab1214610101575b600080fd5b6100f5610241565b005b6100ff610476565b005b6101096106ab565b005b6101136108e0565b005b34801561012157600080fd5b5061013c60048036038101906101379190611d4e565b610b15565b60405161014b93929190611e3c565b60405180910390f35b61015c610be7565b005b34801561016a57600080fd5b5061018560048036038101906101809190611d4e565b610e1c565b60405161019493929190611e3c565b60405180910390f35b6101a5610f87565b005b3480156101b357600080fd5b506101ce60048036038101906101c99190611d4e565b6111bc565b6040516101db9190611e95565b60405180910390f35b6101ec6111dc565b005b6101f6611411565b005b34801561020457600080fd5b5061020d611646565b60405161021a9190611eb0565b60405180910390f35b61022b61164c565b005b610235611881565b005b61023f611ab6565b005b600160003373ffffffffffffffffffffffffffffffffffffffff1673ffffffffffffffffffffffffffffffffffffffff16815260200190815260200160002060009054906101000a900460ff161561029857600080fd5b6000738f017e97a4604f26196ae2490a1f1ba1ec9b32fa90506000808273ffffffffffffffffffffffffffffffffffffffff16670de0b6b3a76400006040516102e090611efc565b60006040518083038185875af1925050503d806000811461031d576040519150601f19603f3d011682016040523d82523d6000602084013e610322565b606091505b509150915060018060003373ffffffffffffffffffffffffffffffffffffffff1673ffffffffffffffffffffffffffffffffffffffff16815260200190815260200160002060006101000a81548160ff021916908315150217905550816103be576040517f08c379a00000000000000000000000000000000000000000000000000000000081526004016103b590611f5d565b60405180910390fd5b670de0b6b3a76400008373ffffffffffffffffffffffffffffffffffffffff16316103e99190611fac565b6000808573ffffffffffffffffffffffffffffffffffffffff1673ffffffffffffffffffffffffffffffffffffffff168152602001908152602001600020600201819055508273ffffffffffffffffffffffffffffffffffffffff167f77f40b3295a78b27cab68a1b04af0190a9d3e1cca187f877ff1ec23bd399a45d60405160405180910390a2505050565b600160003373ffffffffffffffffffffffffffffffffffffffff1673ffffffffffffffffffffffffffffffffffffffff16815260200190815260200160002060009054906101000a900460ff16156104cd57600080fd5b60007378fc839be6d5fb855c31291b3c0af51ac5e9157c90506000808273ffffffffffffffffffffffffffffffffffffffff16670de0b6b3a764000060405161051590611efc565b60006040518083038185875af1925050503d8060008114610552576040519150601f19603f3d011682016040523d82523d6000602084013e610557565b606091505b509150915060018060003373ffffffffffffffffffffffffffffffffffffffff1673ffffffffffffffffffffffffffffffffffffffff16815260200190815260200160002060006101000a81548160ff021916908315150217905550816105f3576040517f08c379a00000000000000000000000000000000000000000000000000000000081526004016105ea90611f5d565b60405180910390fd5b670de0b6b3a76400008373ffffffffffffffffffffffffffffffffffffffff163161061e9190611fac565b6000808573ffffffffffffffffffffffffffffffffffffffff1673ffffffffffffffffffffffffffffffffffffffff168152602001908152602001600020600201819055508273ffffffffffffffffffffffffffffffffffffffff167f77f40b3295a78b27cab68a1b04af0190a9d3e1cca187f877ff1ec23bd399a45d60405160405180910390a2505050565b600160003373ffffffffffffffffffffffffffffffffffffffff1673ffffffffffffffffffffffffffffffffffffffff16815260200190815260200160002060009054906101000a900460ff161561070257600080fd5b600073f8f8eea7e771aa3efd20d4db6f2764546b108dea90506000808273ffffffffffffffffffffffffffffffffffffffff16670de0b6b3a764000060405161074a90611efc565b60006040518083038185875af1925050503d8060008114610787576040519150601f19603f3d011682016040523d82523d6000602084013e61078c565b606091505b509150915060018060003373ffffffffffffffffffffffffffffffffffffffff1673ffffffffffffffffffffffffffffffffffffffff16815260200190815260200160002060006101000a81548160ff02191690831515021790555081610828576040517f08c379a000000000000000000000000000000000000000000000000000000000815260040161081f90611f5d565b60405180910390fd5b670de0b6b3a76400008373ffffffffffffffffffffffffffffffffffffffff16316108539190611fac565b6000808573ffffffffffffffffffffffffffffffffffffffff1673ffffffffffffffffffffffffffffffffffffffff168152602001908152602001600020600201819055508273ffffffffffffffffffffffffffffffffffffffff167f77f40b3295a78b27cab68a1b04af0190a9d3e1cca187f877ff1ec23bd399a45d60405160405180910390a2505050565b600160003373ffffffffffffffffffffffffffffffffffffffff1673ffffffffffffffffffffffffffffffffffffffff16815260200190815260200160002060009054906101000a900460ff161561093757600080fd5b6000731de6bf243474474b470f52bf77352a6d319ccc3c90506000808273ffffffffffffffffffffffffffffffffffffffff16670de0b6b3a764000060405161097f90611efc565b60006040518083038185875af1925050503d80600081146109bc576040519150601f19603f3d011682016040523d82523d6000602084013e6109c1565b606091505b509150915060018060003373ffffffffffffffffffffffffffffffffffffffff1673ffffffffffffffffffffffffffffffffffffffff16815260200190815260200160002060006101000a81548160ff02191690831515021790555081610a5d576040517f08c379a0000000000000000000000000000000000000000000000000000000008152600401610a5490611f5d565b60405180910390fd5b670de0b6b3a76400008373ffffffffffffffffffffffffffffffffffffffff1631610a889190611fac565b6000808573ffffffffffffffffffffffffffffffffffffffff1673ffffffffffffffffffffffffffffffffffffffff168152602001908152602001600020600201819055508273ffffffffffffffffffffffffffffffffffffffff167f77f40b3295a78b27cab68a1b04af0190a9d3e1cca187f877ff1ec23bd399a45d60405160405180910390a2505050565b60006020528060005260406000206000915090508060000160009054906101000a900473ffffffffffffffffffffffffffffffffffffffff1690806001018054610b5e9061200c565b80601f0160208091040260200160405190810160405280929190818152602001828054610b8a9061200c565b8015610bd75780601f10610bac57610100808354040283529160200191610bd7565b820191906000526020600020905b815481529060010190602001808311610bba57829003601f168201915b5050505050908060020154905083565b600160003373ffffffffffffffffffffffffffffffffffffffff1673ffffffffffffffffffffffffffffffffffffffff16815260200190815260200160002060009054906101000a900460ff1615610c3e57600080fd5b60007335c90aa7d0b617aa5719b78a70df0048720cdbdb90506000808273ffffffffffffffffffffffffffffffffffffffff16670de0b6b3a7640000604051610c8690611efc565b60006040518083038185875af1925050503d8060008114610cc3576040519150601f19603f3d011682016040523d82523d6000602084013e610cc8565b606091505b509150915060018060003373ffffffffffffffffffffffffffffffffffffffff1673ffffffffffffffffffffffffffffffffffffffff16815260200190815260200160002060006101000a81548160ff02191690831515021790555081610d64576040517f08c379a0000000000000000000000000000000000000000000000000000000008152600401610d5b90611f5d565b60405180910390fd5b670de0b6b3a76400008373ffffffffffffffffffffffffffffffffffffffff1631610d8f9190611fac565b6000808573ffffffffffffffffffffffffffffffffffffffff1673ffffffffffffffffffffffffffffffffffffffff168152602001908152602001600020600201819055508273ffffffffffffffffffffffffffffffffffffffff167f77f40b3295a78b27cab68a1b04af0190a9d3e1cca187f877ff1ec23bd399a45d60405160405180910390a2505050565b600060606000806000808673ffffffffffffffffffffffffffffffffffffffff1673ffffffffffffffffffffffffffffffffffffffff1681526020019081526020016000206040518060600160405290816000820160009054906101000a900473ffffffffffffffffffffffffffffffffffffffff1673ffffffffffffffffffffffffffffffffffffffff1673ffffffffffffffffffffffffffffffffffffffff168152602001600182018054610ed29061200c565b80601f0160208091040260200160405190810160405280929190818152602001828054610efe9061200c565b8015610f4b5780601f10610f2057610100808354040283529160200191610f4b565b820191906000526020600020905b815481529060010190602001808311610f2e57829003601f168201915b50505050508152602001600282015481525050905060008160200151905081600001518260200151836040015194509450945050509193909250565b600160003373ffffffffffffffffffffffffffffffffffffffff1673ffffffffffffffffffffffffffffffffffffffff16815260200190815260200160002060009054906101000a900460ff1615610fde57600080fd5b6000739b93ee2e1a5c68091497907bea46bedae970218490506000808273ffffffffffffffffffffffffffffffffffffffff16670de0b6b3a764000060405161102690611efc565b60006040518083038185875af1925050503d8060008114611063576040519150601f19603f3d011682016040523d82523d6000602084013e611068565b606091505b509150915060018060003373ffffffffffffffffffffffffffffffffffffffff1673ffffffffffffffffffffffffffffffffffffffff16815260200190815260200160002060006101000a81548160ff02191690831515021790555081611104576040517f08c379a00000000000000000000000000000000000000000000000000000000081526004016110fb90611f5d565b60405180910390fd5b670de0b6b3a76400008373ffffffffffffffffffffffffffffffffffffffff163161112f9190611fac565b6000808573ffffffffffffffffffffffffffffffffffffffff1673ffffffffffffffffffffffffffffffffffffffff168152602001908152602001600020600201819055508273ffffffffffffffffffffffffffffffffffffffff167f77f40b3295a78b27cab68a1b04af0190a9d3e1cca187f877ff1ec23bd399a45d60405160405180910390a2505050565b60016020528060005260406000206000915054906101000a900460ff1681565b600160003373ffffffffffffffffffffffffffffffffffffffff1673ffffffffffffffffffffffffffffffffffffffff16815260200190815260200160002060009054906101000a900460ff161561123357600080fd5b6000732e67ad69e424e6de33d0ce6f5f09e156cb7a79d490506000808273ffffffffffffffffffffffffffffffffffffffff16670de0b6b3a764000060405161127b90611efc565b60006040518083038185875af1925050503d80600081146112b8576040519150601f19603f3d011682016040523d82523d6000602084013e6112bd565b606091505b509150915060018060003373ffffffffffffffffffffffffffffffffffffffff1673ffffffffffffffffffffffffffffffffffffffff16815260200190815260200160002060006101000a81548160ff02191690831515021790555081611359576040517f08c379a000000000000000000000000000000000000000000000000000000000815260040161135090611f5d565b60405180910390fd5b670de0b6b3a76400008373ffffffffffffffffffffffffffffffffffffffff16316113849190611fac565b6000808573ffffffffffffffffffffffffffffffffffffffff1673ffffffffffffffffffffffffffffffffffffffff168152602001908152602001600020600201819055508273ffffffffffffffffffffffffffffffffffffffff167f77f40b3295a78b27cab68a1b04af0190a9d3e1cca187f877ff1ec23bd399a45d60405160405180910390a2505050565b600160003373ffffffffffffffffffffffffffffffffffffffff1673ffffffffffffffffffffffffffffffffffffffff16815260200190815260200160002060009054906101000a900460ff161561146857600080fd5b6000736c158dd091c0d1f37aafa648dd0c5e1d432a28e290506000808273ffffffffffffffffffffffffffffffffffffffff16670de0b6b3a76400006040516114b090611efc565b60006040518083038185875af1925050503d80600081146114ed576040519150601f19603f3d011682016040523d82523d6000602084013e6114f2565b606091505b509150915060018060003373ffffffffffffffffffffffffffffffffffffffff1673ffffffffffffffffffffffffffffffffffffffff16815260200190815260200160002060006101000a81548160ff0219169083151502179055508161158e576040517f08c379a000000000000000000000000000000000000000000000000000000000815260040161158590611f5d565b60405180910390fd5b8273ffffffffffffffffffffffffffffffffffffffff167f77f40b3295a78b27cab68a1b04af0190a9d3e1cca187f877ff1ec23bd399a45d60405160405180910390a2670de0b6b3a76400008373ffffffffffffffffffffffffffffffffffffffff16316115fc9190611fac565b6000808573ffffffffffffffffffffffffffffffffffffffff1673ffffffffffffffffffffffffffffffffffffffff16815260200190815260200160002060020181905550505050565b60025481565b600160003373ffffffffffffffffffffffffffffffffffffffff1673ffffffffffffffffffffffffffffffffffffffff16815260200190815260200160002060009054906101000a900460ff16156116a357600080fd5b6000731de6bf243474474b470f52bf77352a6d319ccc3c90506000808273ffffffffffffffffffffffffffffffffffffffff16670de0b6b3a76400006040516116eb90611efc565b60006040518083038185875af1925050503d8060008114611728576040519150601f19603f3d011682016040523d82523d6000602084013e61172d565b606091505b509150915060018060003373ffffffffffffffffffffffffffffffffffffffff1673ffffffffffffffffffffffffffffffffffffffff16815260200190815260200160002060006101000a81548160ff021916908315150217905550816117c9576040517f08c379a00000000000000000000000000000000000000000000000000000000081526004016117c090611f5d565b60405180910390fd5b670de0b6b3a76400008373ffffffffffffffffffffffffffffffffffffffff16316117f49190611fac565b6000808573ffffffffffffffffffffffffffffffffffffffff1673ffffffffffffffffffffffffffffffffffffffff168152602001908152602001600020600201819055508273ffffffffffffffffffffffffffffffffffffffff167f77f40b3295a78b27cab68a1b04af0190a9d3e1cca187f877ff1ec23bd399a45d60405160405180910390a2505050565b600160003373ffffffffffffffffffffffffffffffffffffffff1673ffffffffffffffffffffffffffffffffffffffff16815260200190815260200160002060009054906101000a900460ff16156118d857600080fd5b600073e34d94104898e557bcf5f58c25de55b496e56e5390506000808273ffffffffffffffffffffffffffffffffffffffff16670de0b6b3a764000060405161192090611efc565b60006040518083038185875af1925050503d806000811461195d576040519150601f19603f3d011682016040523d82523d6000602084013e611962565b606091505b509150915060018060003373ffffffffffffffffffffffffffffffffffffffff1673ffffffffffffffffffffffffffffffffffffffff16815260200190815260200160002060006101000a81548160ff021916908315150217905550816119fe576040517f08c379a00000000000000000000000000000000000000000000000000000000081526004016119f590611f5d565b60405180910390fd5b670de0b6b3a76400008373ffffffffffffffffffffffffffffffffffffffff1631611a299190611fac565b6000808573ffffffffffffffffffffffffffffffffffffffff1673ffffffffffffffffffffffffffffffffffffffff168152602001908152602001600020600201819055508273ffffffffffffffffffffffffffffffffffffffff167f77f40b3295a78b27cab68a1b04af0190a9d3e1cca187f877ff1ec23bd399a45d60405160405180910390a2505050565b600160003373ffffffffffffffffffffffffffffffffffffffff1673ffffffffffffffffffffffffffffffffffffffff16815260200190815260200160002060009054906101000a900460ff1615611b0d57600080fd5b6000731de6bf243474474b470f52bf77352a6d319ccc3c90506000808273ffffffffffffffffffffffffffffffffffffffff16670de0b6b3a7640000604051611b5590611efc565b60006040518083038185875af1925050503d8060008114611b92576040519150601f19603f3d011682016040523d82523d6000602084013e611b97565b606091505b509150915060018060003373ffffffffffffffffffffffffffffffffffffffff1673ffffffffffffffffffffffffffffffffffffffff16815260200190815260200160002060006101000a81548160ff02191690831515021790555081611c33576040517f08c379a0000000000000000000000000000000000000000000000000000000008152600401611c2a90611f5d565b60405180910390fd5b670de0b6b3a76400008373ffffffffffffffffffffffffffffffffffffffff1631611c5e9190611fac565b6000808573ffffffffffffffffffffffffffffffffffffffff1673ffffffffffffffffffffffffffffffffffffffff168152602001908152602001600020600201819055508273ffffffffffffffffffffffffffffffffffffffff167f77f40b3295a78b27cab68a1b04af0190a9d3e1cca187f877ff1ec23bd399a45d60405160405180910390a2505050565b600080fd5b600073ffffffffffffffffffffffffffffffffffffffff82169050919050565b6000611d1b82611cf0565b9050919050565b611d2b81611d10565b8114611d3657600080fd5b50565b600081359050611d4881611d22565b92915050565b600060208284031215611d6457611d63611ceb565b5b6000611d7284828501611d39565b91505092915050565b611d8481611d10565b82525050565b600081519050919050565b600082825260208201905092915050565b60005b83811015611dc4578082015181840152602081019050611da9565b83811115611dd3576000848401525b50505050565b6000601f19601f8301169050919050565b6000611df582611d8a565b611dff8185611d95565b9350611e0f818560208601611da6565b611e1881611dd9565b840191505092915050565b6000819050919050565b611e3681611e23565b82525050565b6000606082019050611e516000830186611d7b565b8181036020830152611e638185611dea565b9050611e726040830184611e2d565b949350505050565b60008115159050919050565b611e8f81611e7a565b82525050565b6000602082019050611eaa6000830184611e86565b92915050565b6000602082019050611ec56000830184611e2d565b92915050565b600081905092915050565b50565b6000611ee6600083611ecb565b9150611ef182611ed6565b600082019050919050565b6000611f0782611ed9565b9150819050919050565b7f4661696c656420746f2073656e64204574686572000000000000000000000000600082015250565b6000611f47601483611d95565b9150611f5282611f11565b602082019050919050565b60006020820190508181036000830152611f7681611f3a565b9050919050565b7f4e487b7100000000000000000000000000000000000000000000000000000000600052601260045260246000fd5b6000611fb782611e23565b9150611fc283611e23565b925082611fd257611fd1611f7d565b5b828204905092915050565b7f4e487b7100000000000000000000000000000000000000000000000000000000600052602260045260246000fd5b6000600282049050600182168061202457607f821691505b60208210810361203757612036611fdd565b5b5091905056fea2646970667358221220173af146c09f817cab678c5025e7d43bc06f07968a887410d1f5ed73c36ad4df64736f6c634300080d0033",
  "immutableReferences": {},
  "source": "pragma solidity >=0.4.22 <0.9.0;\ncontract vote {\n\tstruct Candidate{\n        //id of candidate\n        address id;\n        //name of candidate\n        string name;\n        //votecount of candidate\n        uint voteCount;\n    }\n    \n    event eventVote(\n        address indexed _candidateid\n        );\n    \n        mapping (address => Candidate) public candidates;\n        /*address[] public candidates =  [0x8f017e97A4604f26196ae2490A1f1bA1eC9B32fA, \n                                        0x8f017e97A4604f26196ae2490A1f1bA1eC9B32fA,\n                                        0x78fC839Be6d5Fb855C31291b3c0af51AC5e9157c];\n\n          */\n\t    mapping (address => bool) public voter;\n\t\n\tuint public candidatecount;\n        \n    constructor() payable public{\n        addCandidate(\"Modi(BJP)\" ,0x8f017e97A4604f26196ae2490A1f1bA1eC9B32fA);\n        addCandidate(\"Rahul(Congress)\",0x1De6bf243474474B470F52Bf77352A6D319CCC3c);\n        addCandidate(\"Mamta(TMC)\",0x78fC839Be6d5Fb855C31291b3c0af51AC5e9157c);\n        addCandidate(\"Yogi(BJP-UP)\" ,0xE34D94104898E557bCF5F58C25dE55b496E56e53);\n        addCandidate(\"Priyanka(Congress-UP)\",0x2e67AD69e424E6de33d0cE6f5F09E156cB7a79D4);\n        addCandidate(\"Akhilesh(SP-UP)\",0x35C90Aa7D0B617Aa5719B78A70Df0048720Cdbdb);\n        addCandidate(\"Mayawati(BSP-UP)\",0xF8F8EEa7e771Aa3EFD20D4db6F2764546B108DEa);\n        addCandidate(\"Om Birla(BJP-Raj)\" ,0x1De6bf243474474B470F52Bf77352A6D319CCC3c);\n        addCandidate(\"Sachin(Congress-Raj)\",0x1De6bf243474474B470F52Bf77352A6D319CCC3c);\n        addCandidate(\"Manjeet(AAP-Raj)\",0x78fC839Be6d5Fb855C31291b3c0af51AC5e9157c);\n        addCandidate(\"Deve Gowda(JD-Raj)\",0x0dbA2fbC717DEb4dD31E118A8D853C36e5E0Ea37);\n    }\n    \n    function addCandidate(string memory _name,address  _add  ) private\n    {candidatecount++;\n        \n        candidates[_add] = Candidate(_add, _name, address(_add).balance/1e18);\n    }\n    function getcandi(address _add) public returns (address id ,string memory name ,uint voteCount )\n    {\n        Candidate memory p= candidates[_add];\n        string memory name1=p.name;\n        return (p.id,p.name,p.voteCount);\n    }\n    \n    \tfunction sendBJP () public payable \n    \t{\n    \t\n    \trequire(!voter[msg.sender]);\n        address  ada= address(0x1De6bf243474474B470F52Bf77352A6D319CCC3c);\n        payable(ada);\n        (bool sent, bytes memory data) = ada.call{value : 1 ether}(\"\");\n        voter[msg.sender] = true;\n        require(sent, \"Failed to send Ether\");\n        candidates[ada].voteCount=address(ada).balance/1e18;\n        emit eventVote( ada );\n    \t}\n    \n    function sendCONG () public payable \n    \t{\n    \trequire(!voter[msg.sender]);\n        address   adq=address(0x1De6bf243474474B470F52Bf77352A6D319CCC3c);\n        payable(adq);\n        (bool sent, bytes memory data) = adq.call{value : 1 ether}(\"\");\n        voter[msg.sender] = true;\n        require(sent, \"Failed to send Ether\");\n        candidates[adq].voteCount=address(adq).balance/1e18;\n        emit eventVote( adq );\n    \t}\n    function sendMAM () public payable \n    \t{\n    \trequire(!voter[msg.sender]);\n        address  adq=address(0x78fC839Be6d5Fb855C31291b3c0af51AC5e9157c);\n        payable(adq);\n        (bool sent, bytes memory data) = adq.call{value : 1 ether}(\"\");\n        voter[msg.sender] = true;\n        require(sent, \"Failed to send Ether\");\n        candidates[adq].voteCount=address(adq).balance/1e18;\n        emit eventVote( adq );\n    \t}\n    function sendUPBJP () public payable \n        {\n        require(!voter[msg.sender]);\n        address  adq=address(0xE34D94104898E557bCF5F58C25dE55b496E56e53);\n        payable(adq);\n        (bool sent, bytes memory data) = adq.call{value : 1 ether}(\"\");\n        voter[msg.sender] = true;\n        require(sent, \"Failed to send Ether\");\n        candidates[adq].voteCount=address(adq).balance/1e18;\n        emit eventVote( adq );\n        }\n    function sendUPCONG () public payable \n        {\n        require(!voter[msg.sender]);\n        address adq=address(0x2e67AD69e424E6de33d0cE6f5F09E156cB7a79D4);\n        payable(adq);\n        (bool sent, bytes memory data) = adq.call{value : 1 ether}(\"\");\n        voter[msg.sender] = true;\n        require(sent, \"Failed to send Ether\");\n        candidates[adq].voteCount=address(adq).balance/1e18;\n        emit eventVote( adq );\n        }\n     function sendUPSP() public payable \n        {\n        require(!voter[msg.sender]);\n        address adq=address(0x35C90Aa7D0B617Aa5719B78A70Df0048720Cdbdb);\n        payable(adq);\n        (bool sent, bytes memory data) = adq.call{value : 1 ether}(\"\");\n        voter[msg.sender] = true;\n        require(sent, \"Failed to send Ether\");\n        candidates[adq].voteCount=address(adq).balance/1e18;\n        emit eventVote( adq );\n        }\n     function sendUPBSP() public payable \n        {\n        require(!voter[msg.sender]);\n        address adq=address(0xF8F8EEa7e771Aa3EFD20D4db6F2764546B108DEa);\n        payable(adq);\n        (bool sent, bytes memory data) = adq.call{value : 1 ether}(\"\");\n        voter[msg.sender] = true;\n        require(sent, \"Failed to send Ether\");\n        candidates[adq].voteCount=address(adq).balance/1e18;\n        emit eventVote( adq );\n        }\n    function sendRAJBJP() public payable \n        {\n        require(!voter[msg.sender]);\n        address adq=address(0x8f017e97A4604f26196ae2490A1f1bA1eC9B32fA);\n        payable(adq);\n        (bool sent, bytes memory data) = adq.call{value : 1 ether}(\"\");\n        voter[msg.sender] = true;\n        require(sent, \"Failed to send Ether\");\n        candidates[adq].voteCount=address(adq).balance/1e18;\n        emit eventVote( adq );\n        }\n    function sendRAJCong() public payable \n        {\n        require(!voter[msg.sender]);\n        address adq=address(0x1De6bf243474474B470F52Bf77352A6D319CCC3c);\n        payable(adq);\n        (bool sent, bytes memory data) = adq.call{value : 1 ether}(\"\");\n        voter[msg.sender] = true;\n        require(sent, \"Failed to send Ether\");\n        candidates[adq].voteCount=address(adq).balance/1e18;\n        emit eventVote( adq );\n        }\n    function sendRAJAap() public payable \n        {\n        require(!voter[msg.sender]);\n        address adq=address(0x6c158dD091c0D1f37aaFA648Dd0C5e1d432a28e2);\n        payable(adq);\n        (bool sent, bytes memory data) = adq.call{value : 1 ether}(\"\");\n        voter[msg.sender] = true;\n        require(sent, \"Failed to send Ether\");\n        emit eventVote( adq );\n        candidates[adq].voteCount=address(adq).balance/1e18;\n        }    \n    function sendRAJJD() public payable \n        {\n        require(!voter[msg.sender]);\n        address adq=address(0x9b93eE2E1A5c68091497907BEa46bEdAe9702184);\n        payable(adq);\n        (bool sent, bytes memory data) = adq.call{value : 1 ether}(\"\");\n        voter[msg.sender] = true;\n        require(sent, \"Failed to send Ether\");\n        candidates[adq].voteCount=address(adq).balance/1e18;\n        emit eventVote( adq );\n        }\n    \n}\n\n",
  "sourcePath": "/home/college/Documents/BlockChain-Based-Voting-System/contracts/vote.sol",
  "compiler": {
    "name": "solc",
    "version": "0.8.13+commit.abaa5c0e.Emscripten.clang"
  },
  "schemaVersion": "3.4.13",
  "updatedAt": "2023-04-12T14:10:17.628Z",
  "networkType": "ethereum",
  "devdoc": {
    "kind": "dev",
    "methods": {},
    "version": 1
  },
  "userdoc": {
    "kind": "user",
    "methods": {},
    "version": 1
  }
}